:0400000046EF39F09E
:10728C00000EF86E000153EF3BF001500302F3CFF8
:10729C0005F0F4CF06F001500402F350062602501C
:1072AC000302F350062605C001F006C002F01200DE
:1072BC00000E016E81988196818800D0819800D053
:1072CC00956881948186818800D0819800D071EF77
:1072DC0039F000D0012A83AE76EF39F078EF39F02F
:1072EC0080EF39F0310E01647EEF39F080EF39F028
:1072FC006FEF39F081961200818081928194819692
:10730C00000E956E3F0E836E5EEC39F08194819683
:10731C00000E956E400E836E5EEC39F0819081828A
:10732C0081948196000E956E3F0E836E5EEC39F063
:10733C0081948196000E956E400E836E5EEC39F052
:10734C00120003500410D8B4AEEF39F0B0EF39F09E
:10735C00D4EF39F0010E056EB8EF39F0D890033642
:10736C000436052A04AEBDEF39F0BFEF39F0B4EFA7
:10737C0039F00350015C04500258D8A0C8EF39F022
:10738C00CAEF39F0CEEF39F00350015E0450025AC7
:10739C00D89004320332052EBFEF39F001C001F052
:1073AC0002C002F01200000E066E000E056E0350B5
:1073BC000410D8B4E4EF39F0E6EF39F00EEF3AF000
:1073CC00010E076EEEEF39F0D89003360436072A1B
:1073DC0004AEF3EF39F0F5EF39F0EAEF39F0D8906D
:1073EC00053606360350015C04500258D8A001EF54
:1073FC003AF003EF3AF008EF3AF00350015E045014
:10740C00025A0580D89004320332072EF5EF39F07A
:10741C0005C001F006C002F01200000E066E000E50
:10742C00056E61EF3AF005BC1EEF3AF022EF3AF030
:10743C00026A022A23EF3AF0026A024681500218CD
:10744C00FD0B0218816E81A22EEF3AF032EF3AF06A
:10745C00026A022A33EF3AF0026A81500218FE0BDC
:10746C000218816E81948196000E956E05C002F013
:10747C0006C003F0070E046ED89003320232042EBD
:10748C0042EF3AF00250B80F836E5EEC39F0819403
:10749C008196000E956E05503F0B400F836E5EEC8F
:1074AC0039F081848196000E956E000E836E5EEC31
:1074BC0039F0054A062A040E065CD8A068EF3AF0AB
:1074CC006AEF3AF019EF3AF01200000E066E000E59
:1074DC00056EC0EF3AF005BC76EF3AF07AEF3AF071
:1074EC00026A022A7BEF3AF0026A024681500218C5
:1074FC00FD0B0218816E81A286EF3AF08AEF3AF00A
:10750C00026A022A8BEF3AF0026A81500218FE0BD3
:10751C000218816E81948196000E956E05C002F062
:10752C0006C003F0070E046ED89003320232042E0C
:10753C009AEF3AF00250B80F836E5EEC39F08194FA
:10754C008196000E956E05503F0B400F836E5EECDE
:10755C0039F081848196000E956E0F0E0524F66E1F
:10756C007A0E0620F76E0800F5CF83FF5EEC39F03B
:10757C00054A062A040E065CD8A0C7EF3AF0C9EFFC
:10758C003AF071EF3AF01200086E000E0A6E000E1F
:10759C00096E49EF3BF009BCD6EF3AF0DAEF3AF05E
:1075AC00026A022ADBEF3AF0026A024681500218A4
:1075BC00FD0B0218816E81A2E6EF3AF0EAEF3AF089
:1075CC00026A022AEBEF3AF0026A81500218FE0BB3
:1075DC000218816E81948196000E956E09C002F09E
:1075EC000AC003F0070E046ED89003320232042E48
:1075FC00FAEF3AF00250B80F836E5EEC39F08194DA
:10760C008196000E956E09503F0B400F836E5EEC19
:10761C0039F081848196000E956E0804D8B419EF68
:10762C003BF01DEF3BF0026A022A1EEF3BF0026AB0
:10763C0009C003F00AC004F0070E056ED89004329E
:10764C000332052E24EF3BF0010E03160F0E091426
:10765C00066E000E0A14076E07500AE1080E065C4F
:10766C00D8A03BEF3BF03EEF3BF0010E3FEF3BF081
:10767C00000E03180218010DF3500008836E5EEC27
:10768C0039F0094A0A2A040E0A5CD8A050EF3BF0E4
:10769C0052EF3BF0D1EF3AF01200000E0F01396FB0
:1076AC00C00E936E000E3B6F9568818A00D082EC01
:1076BC0039F013EC3AF06BEC3AF00B0E246E260E0C
:1076CC00236E5E0EE82EFED7232EFCD7242EFAD77F
:1076DC000B0E246E260E236E5E0EE82EFED7232E86
:1076EC00FCD7242EFAD7000ECAEC3AF00B0E246EFF
:1076FC00260E236E5E0EE82EFED7232EFCD7242EEC
:10770C00FAD70B0E246E260E236E5E0EE82EFED7D5
:10771C00232EFCD7242EFAD7010ECAEC3AF00B0E0E
:10772C00246E260E236E5E0EE82EFED7232EFCD77B
:10773C00242EFAD70B0E246E260E236E5E0EE82E28
:10774C00FED7232EFCD7242EFAD7000E096E000E7E
:10775C00086E000E0B6E000E0A6EEA0E0C6E7F0E9B
:10776C000D6EE1EC3BF00B0E246E260E236E5E0EBE
:10777C00E82EFED7232EFCD7242EFAD70B0E246E20
:10778C00260E236E5E0EE82EFED7232EFCD7242E5B
:10779C00FAD7000E096E020E086E000E0B6E070E65
:1077AC000A6EEA0E0C6E7F0E0D6EE1EC3BF063EF91
:1077BC003BF000EF00F0000E1E6E000E1D6E0AC0B6
:1077CC000EF00BC00FF0070ED8900E360F36E82EC9
:1077DC00EAEF3BF008C001F009C002F0000E046EA5
:1077EC00060E036E4BEC39F00E500124216E0F5037
:1077FC000220226E21C01FF022C020F0F2EF3CF0DC
:10780C0021BC0BEF3CF00FEF3CF00E6A0E2A10EF90
:10781C003CF00E6A0E4681500E18FD0B0E18816E50
:10782C0081A21BEF3CF01FEF3CF00E6A0E2A20EFFA
:10783C003CF00E6A81500E18FE0B0E18816E81946E
:10784C008196000E956E21C00EF022C00FF0070E2F
:10785C00106ED8900F320E32102E2FEF3CF00E50CF
:10786C00B80F836E5EEC39F081948196000E956EA4
:10787C0021503F0B400F836E5EEC39F08184819672
:10788C00000E956E7F0E21140E6E000E22140F6EDC
:10789C000F5009E17E0E0E5CD8A057EF3CF059EF6B
:1078AC003CF05DEF3CF0000E836ED7EF3CF07F0EAA
:1078BC002114016E026A000E046E060E036EA7EC14
:1078CC0039F001500210D8A46EEF3CF070EF3CF090
:1078DC0072EF3CF059EF3CF05F0E0E6EFF0E0F6E28
:1078EC001F50215C106E20502258116E7F0E101408
:1078FC00016E026A000E046E060E036ED9EC39F0AE
:10790C001F50215C126E20502258136E070E146EFD
:10791C00D89013321232142E8EEF3CF0150E120248
:10792C00F3CF15F0F4CF16F01302F35016260CC05B
:10793C0017F00DC018F015501726165018220150CC
:10794C0017260250182217C0F6FF18C0F7FF0800C0
:10795C00F550050D0F0E196E7E0E1A6EF35019268A
:10796C00F4501A221F50215C1B6E205022581C6EA2
:10797C007F0E1B14016E026A000E046E060E036E5F
:10798C00A7EC39F00150192602501A220E50192674
:10799C000F501A2219C0F6FF1AC0F7FF0800F5CFD6
:1079AC0083FF5EEC39F0214A222A1F50215C016EC4
:1079BC0020502258026E000E046E060E036EA7ECC9
:1079CC0039F001500210D8A4EEEF3CF0F0EF3CF08F
:1079DC00F2EF3CF01D4A1E2A1D500C240E6E1E5058
:1079EC000D200F6E0EC0F6FF0FC0F7FF0800F5500C
:1079FC000009D8A404EF3DF006EF3DF006EF3CF093
:107A0C00120000FFFFFFFFFFFFFFFFFFFFFFFFFF65
:107A1C00FFFFFFFFFFFFFFFFFFFFFFFFFFFFFFFF6A
:107A2C007F7F7F3F3FBF9F9FDFDFCFCFCF6FEFE7E2
:107A3C00E76777F7F7D71333F3F3FB1B1B7B3B1B82
:107A4C005BDBFBFBFBFBFBFBFB3B1B9BEBF37313C2
:107A5C0033F7F7F7776767E7EFEFCFCFDFDFDF9F1E
:107A6C009FBF3F3F7F7F7FFFFFFFFFFFFFFFFFFFBA
:107A7C00FFFFFFFFFFFFFFFFFFFFFFFFFFFFFFFF0A
:107A8C00FFFFFFFFFFFFFFFFFFFFFFFFFFFFFFFFFA
:107A9C00FF7F3F3F9F8FCFE7E773F3B9991D4C2EC4
:107AAC00BEDE777327C7C1D1F7F7676F6E38B0B2F8
:107ABC009D9DD8D8C9CFCFECECEFEFE4E4E7E7E736
:107ACC00E62606070727E7E7E7E6E4E5EDEDECEE4B
:107ADC00CFCFC9D8DE9E98B3313C6E6763F3F9FC07
:107AEC009E8783D3DFCE6E6E3C3DB9B97373E7E7E7
:107AFC00CF8F9F3F3F7FFFFFFFFFFFFFFFFFFFFF8A
:107B0C00FFFFFFFFFFFFFFFFFFFF3F1F87C3E1F9F1
:107B1C007C3C9E9F3F7FF9FD7C3CF9F9FB733B1E3F
:107B2C009ECEC6E7F3F1F9FCFCFEFEFEFEF8F1C1B9
:107B3C00811B33F3F7E7E7EFCFCF9F9F3F1F074141
:107B4C007078FEFFFE787043071F3F9F9FDFCFEFDB
:107B5C00E7E7F7F3331B09C1E1F8FCFEFEFEFCFD81
:107B6C00F9F1F3E7C6CE9C193B76F6F793C36B6B32
:107B7C00C963273F3E7C7CF9E3C38F1F3FFFFFFFA8
:107B8C00FFFFFFFFFFFFFF0F0100F8FEFFFF1F1BB2
:107B9C005A5A5B535716B4FCFEFF0F0380F8F8FBE0
:107BAC00FBF3F3F3E3EBCBCBDB9B9BBB3B3B7B7B59
:107BBC007B7A383081838BFBFBFBF9F8FCFEFFFFF3
:107BCC00FEFEFEFCFCFEFEFFFFFEFCF8F9FBFBFBE1
:107BDC009B83813038787B7B7B3B3BBB9B9BDBCB9C
:107BEC00EBE3E3F3F3F3FBFBF8F880030FFFFCFC90
:107BFC00692424253734361717F7FFFEF800031FC6
:107C0C00FFFFFFFFFFFFFFF080001F7FFFFFEFEF85
:107C1C002E2EA6A6A6B2B3BFFFFFF0C0031F3F9F38
:107C2C009F9F8F8F87879793939B99999D9C9C9EE1
:107C3C009E1E1C0D8181939F9FDF9F1F3F7FFFFF27
:107C4C007F7F7F3F7F7F7FFFFF7F3F1F9FDFDFDFD8
:107C5C00D3C1810D1C1EDEDEDEDCDDD9D9DBD3D336
:107C6C00D7C7C7CFCFCFDFDF3F1F03C0F0FF3F3FEA
:107C7C0081717939A13B7BE3E2FFFF7F1F0080F02C
:107C8C00FFFFFFFFFFFFFFFFFFFEFCF0E1C38F1FB5
:107C9C003F7D7DF5F1F9F9FDFDFDFFFFFFFEFCF8E1
:107CAC00F1F3E7C7CF9F9F3F3F7F7FFF7F1F0F837E
:107CBC0080D8CCCFEFE7E7F7F3F3FBF9F8F0E086E9
:107CCC000E3E7FFF7F3E0E82E0F8FCF9FBF3F3F7EC
:107CDC00E7E7EFCFCCD880830F1F7FFF7F7F3F3F3D
:107CEC009F9FCFC7E7F3F1F8FCFEFFFFFBFBFAF217
:107CFC00F6F6F6F76D6E3E1F8FC3E1F0FCFEFFFF4C
:107D0C00FFFFFFFFFFFFFFFFFFFFFFFFFFFFFFFF77
:107D1C00FFFEFCF8F9F3F3E7E7CFDF9F9F3F3F7FD0
:107D2C007FFFFFFFFFFFFFFFFFFEFEFEFCFCFDF9E8
:107D3C00F9FBFBF3F3F3F7F7F72727E7E7676FEFA9
:107D4C006F6C60E1E86C6F6F6FE767672727F7F779
:107D5C00F7F3F3F3FBFBF9F9FDFCFCFEFEFEFFFF72
:107D6C00FFFFFFFFFFFF7F7F3F3F9F9FDFCFE7E7D7
:107D7C00F3F3F9F8FCFEFFFFFFFFFFFFFFFFFFFF30
:107D8C00FFFFFFFFFFFFFFFFFFFFFFFFFFFFFFFFF7
:107D9C00FFFFFFFFFFFFFFFFFFFFFFFFFFFFFFFFE7
:107DAC00FEFEFCFCFDFDF9F9FBFBF3F3F7F7E7E74F
:107DBC00E7EFEFEFEFCFCFCFD9D8DEDFDFDAD8DBCD
:107DCC00DAD8DCDFDFDFDFD8D8DFDFDFDFDCD8CFEE
:107DDC00CFCFEFEFEFEFE7E7E7F7F7F3F3FBFBF9C5
:107DEC00F9FDFDFCFEFEFEFFFFFFFFFFFFFFFFFFA7
:107DFC00FFFFFFFFFFFFFFFFFFFFFFFFFFFFFFFF87
:107E0C00FFFFFF000000000000005F000000030007
:107E1C000300143E143E14242A7F2A1243330866AE
:107E2C006136495522500005030000001C22410018
:107E3C000041221C0014083E081408083E080800E3
:107E4C00503000000808080808006060000020108E
:107E5C000804023E5149453E0004027F0042615134
:107E6C00494622414949361814127F102745454589
:107E7C00393E4949493201017109073649494936A8
:107E8C00264949493E0036360000005636000008A7
:107E9C001422410014141414140041221408020179
:107EAC005109063E4159555E7E0909097E7F4949B3
:107EBC0049363E414141227F4141413E7F4949493A
:107ECC00417F090909013E4141493A7F0808087F71
:107EDC0000417F4100304040403F7F081422417FE9
:107EEC00404040407F020C027F7F0204087F3E41ED
:107EFC0041413E7F090909061E2121215E7F0909A6
:107F0C000976264949493201017F01013F40404031
:107F1C003F1F2040201F7F2010207F41221C224128
:107F2C0007087008076151494543007F4100000272
:107F3C00040810200000417F0004020102044040AC
:107F4C00404040000102040020545454787F4444C3
:107F5C0044383844444444384444447F385454549A
:107F6C001804047E0505085454543C7F0804047816
:107F7C0000447D40002040443D007F102844000018
:107F8C00417F40007C047804787C080404783844F1
:107F9C004444387C14141408081414147C007C0811
:107FAC000404485454542004043F44443C404020AE
:107FBC007C1C2040201C3C4030403C442810284471
:107FCC000C5050503C4464544C4400083641410021
:107FDC00007F0000414136080002010204024B4FB1
:107FEC004D34363730204D43552D3220434C4153C0
:037FFC005300002F
:020000040020DA
:08000000FFFFFFFFFFFFFFFF00
:020000040030CA
:0E000000FF221F3CFFBF85FF0FC00FE00F4027
:00000001FF
